:020000040000FA
:100000000C945D080C9485080C9485080C94850864
:100010000C9485080C9485080C9485080C9485082C
:100020000C9485080C9485080C9485080C9485081C
:100030000C9485080C9485080C9485080C9485080C
:100040000C943A220C9485080C9408220C94E2211A
:100050000C9485080C9485080C9485080C948508EC
:100060000C9485080C94850816000020120000806E
:1000700017000040190000000100004001000000CE
:100080001E0000A007000060060000C00D0000A0D8
:1000900000000000110000C00B000000090000403B
:1000A0000B0000A01C000080100000A000000080D9
:1000B0001F000040130000A003000060160000C0F5
:1000C000180000E015000080040000A0050000C03A
:1000D0000E00004018000040000000401F0000A07B
:1000E000190000C0010000A00B0000601C000060AF
:1000F0001A0000C002000040020000E017000020CB
:100100000C000020100000201F0000C00C0000E0C8
:10011000100000C0150000A00E0000200D000060BF
:1001200011000020010000600B000080160000009C
:10013000180000001F0000E00600006018000060CA
:100140000A0000C017000000060000A01800008090
:10015000000000A0150000C01B0000001C000000F3
:100160000F0000E0130000201C00002005000060CC
:100170001B000080030000401C00004010000040F5
:100180000A0000E01D0000800E000000070000E0F3
:10019000190000801E000000120000A01D0000C019
:1001A000110000A01E0000201800002015000060B3
:1001B0000E0000C007000000130000E01C0000C09B
:1001C0000F000000190000401E0000E0180000C0F1
:1001D0001F0000000C0000001A0000A017000060C3
:1001E00013000080090000E01E000060070000808E
:1001F0000C0000A00F0000600C0000600F000080E9
:10020000060000000D0000401B0000A0090000C017
:10021000140000E00F000020130000C01600004092
:10022000070000A006000020070000C01300000027
:10023000160000A00D0000C0040000E01A000060DD
:1002400017000080190000E00B000020030000C030
:1002500003000000030000E0090000800B000040E4
:10026000160000E0120000601D0000201B0000C00E
:100270001C0000E005000080110000E0010000808B
:10028000010000E0140000C0050000A01B00006099
:10029000090000201E0000800D0000E00E0000603C
:1002A000120000C0080000E0000000C0000000E0F4
:1002B0000A000060020000C01D0000A004000080D1
:1002C0000F000040060000E0070000201900006059
:1002D00014000060100000600000006015000020A5
:1002E000110000601E0000C012000040170000A0B6
:1002F00013000060030000801C0000A01A00002012
:1003000008000020000000200A000080080000A073
:100310001F000060190000200B0000C0090000A0B1
:10032000010000C01E0000400D000000040000009D
:100330001000000015000040040000400F0000A065
:100340000C000080050000E0040000C0100000E088
:100350001F000020060000801200000008000000BE
:100360000A0000A002000020170000C006000040A4
:10037000120000E002000060080000601F00008022
:1003800013000040090000001400000005000040B8
:10039000110000000B0000E00300002009000060D5
:1003A00001000020140000200F0000C0190000A070
:1003B000140000801A000000020000A00800008065
:1003C000150000E011000080140000A01000008063
:1003D0000A000000170000E00C0000C01A000040F6
:1003E0001D00000011000040140000401A0000E051
:1003F000080000C00A00004008000040150000008E
:100400001B0000E0160000600D0000200E000080C0
:10041000180000A00A0000201D0000600400006019
:1004200005000020040000201A0000801D0000E0EC
:100430001B00002016000080070000400C00004058
:10044000050000000E0000A0120000200200008045
:10045000020000001D0000400E0000E00D000080C2
:100460001B000040030000A00000201600008012C6
:1004700000004017000000190000400100000001CA
:100480000000A01E000060070000C0060000A00DD4
:10049000000000000000C0110000000B0000400937
:1004A0000000A00B0000801C0000A01000008000D5
:1004B0000000401F0000A013000060030000C016F1
:1004C0000000E018000080150000A0040000C00536
:1004D0000000400E00004018000040000000A01F77
:1004E0000000C0190000A0010000600B0000601CAB
:1004F0000000C01A000040020000E00200002017C7
:100500000000200C000020100000C01F0000E00CC4
:100510000000C0100000A0150000200E0000600DBB
:1005200000002011000060010000800B0000001698
:10053000000000180000E01F0000600600006018C6
:100540000000C00A000000170000A006000080188C
:100550000000A0000000C0150000001B0000001CEF
:100560000000E00F000020130000201C00006005C8
:100570000000801B000040030000401C00004010F1
:100580000000E00A0000801D0000000E0000E007EF
:10059000000080190000001E0000A0120000C01D15
:1005A0000000A0110000201E0000201800006015AF
:1005B0000000C00E000000070000E0130000C01C97
:1005C0000000000F000040190000E01E0000C018ED
:1005D0000000001F0000000C0000A01A00006017BF
:1005E000000080130000E0090000601E000080078A
:1005F0000000A00C0000600F0000600C0000800FE5
:10060000000000060000400D0000A01B0000C00913
:100610000000E0140000200F0000C013000040168E
:100620000000A007000020060000C0070000001323
:100630000000A0160000C00D0000E0040000601AD9
:10064000000080170000E0190000200B0000C0032C
:10065000000000030000E003000080090000400BE0
:100660000000E016000060120000201D0000C01B0A
:100670000000E01C000080050000E0110000800187
:100680000000E0010000C0140000A0050000601B95
:10069000000020090000801E0000E00D0000600E38
:1006A0000000C0120000E0080000C0000000E000F0
:1006B0000000600A0000C0020000A01D00008004CD
:1006C0000000400F0000E006000020070000601955
:1006D00000006014000060100000600000002015A1
:1006E000000060110000C01E000040120000A017B2
:1006F00000006013000080030000A01C0000201A0E
:1007000000002008000020000000800A0000A0086F
:100710000000601F000020190000C00B0000A009AD
:100720000000C0010000401E0000000D0000000499
:100730000000001000004015000040040000A00F61
:100740000000800C0000E0050000C0040000E01084
:100750000000201F000080060000001200000008BA
:100760000000A00A000020020000C01700004006A0
:100770000000E01200006002000060080000801F1E
:1007800000004013000000090000001400004005B4
:10079000000000110000E00B0000200300006009D1
:1007A00000002001000020140000C00F0000A0196C
:1007B000000080140000001A0000A0020000800861
:1007C0000000E015000080110000A014000080105F
:1007D0000000000A0000E0170000C00C0000401AF2
:1007E0000000001D00004011000040140000E01A4D
:1007F0000000C0080000400A00004008000000158A
:100800000000E01B000060160000200D0000800EBC
:100810000000A0180000200A0000601D0000600415
:1008200000002005000020040000801A0000E01DE8
:100830000000201B00008016000040070000400C54
:10084000000000050000A00E000020120000800241
:10085000000000020000401D0000E00E0000800DBE
:100860000000401B0000A0030020160000801200C2
:1008700000401700000019000040010000000100C6
:1008800000A01E000060070000C0060000A00D00D0
:100890000000000000C0110000000B000040090033
:1008A00000A00B0000801C0000A0100000800000D1
:1008B00000401F0000A013000060030000C01600ED
:1008C00000E018000080150000A0040000C0050032
:1008D00000400E00004018000040000000A01F0073
:1008E00000C0190000A0010000600B0000601C00A7
:1008F00000C01A000040020000E0020000201700C3
:1009000000200C000020100000C01F0000E00C00C0
:1009100000C0100000A0150000200E0000600D00B7
:10092000002011000060010000800B000000160094
:100930000000180000E01F000060060000601800C2
:1009400000C00A000000170000A006000080180088
:1009500000A0000000C0150000001B0000001C00EB
:1009600000E00F000020130000201C0000600500C4
:1009700000801B000040030000401C0000401000ED
:1009800000E00A0000801D0000000E0000E00700EB
:100990000080190000001E0000A0120000C01D0011
:1009A00000A0110000201E000020180000601500AB
:1009B00000C00E000000070000E0130000C01C0093
:1009C00000000F000040190000E01E0000C01800E9
:1009D00000001F0000000C0000A01A0000601700BB
:1009E0000080130000E0090000601E000080070086
:1009F00000A00C0000600F0000600C0000800F00E1
:100A00000000060000400D0000A01B0000C009000F
:100A100000E0140000200F0000C01300004016008A
:100A200000A007000020060000C00700000013001F
:100A300000A0160000C00D0000E0040000601A00D5
:100A40000080170000E0190000200B0000C0030028
:100A50000000030000E003000080090000400B00DC
:100A600000E016000060120000201D0000C01B0006
:100A700000E01C000080050000E011000080010083
:100A800000E0010000C0140000A0050000601B0091
:100A90000020090000801E0000E00D0000600E0034
:100AA00000C0120000E0080000C0000000E00000EC
:100AB00000600A0000C0020000A01D0000800400C9
:100AC00000400F0000E00600002007000060190051
:100AD000006014000060100000600000002015009D
:100AE0000060110000C01E000040120000A01700AE
:100AF000006013000080030000A01C0000201A000A
:100B0000002008000020000000800A0000A008006B
:100B100000601F000020190000C00B0000A00900A9
:100B200000C0010000401E0000000D000000040095
:100B300000001000004015000040040000A00F005D
:100B400000800C0000E0050000C0040000E0100080
:100B500000201F00008006000000120000000800B6
:100B600000A00A000020020000C01700004006009C
:100B700000E01200006002000060080000801F001A
:100B800000401300000009000000140000400500B0
:100B90000000110000E00B000020030000600900CD
:100BA000002001000020140000C00F0000A0190068
:100BB0000080140000001A0000A00200008008005D
:100BC00000E015000080110000A01400008010005B
:100BD00000000A0000E0170000C00C0000401A00EE
:100BE00000001D00004011000040140000E01A0049
:100BF00000C0080000400A00004008000000150086
:100C000000E01B000060160000200D0000800E00B8
:100C100000A0180000200A0000601D000060040011
:100C2000002005000020040000801A0000E01D00E4
:100C300000201B00008016000040070000400C0050
:100C40000000050000A00E0000201200008002003D
:100C50000000020000401D0000E00E0000800D00BA
:100C600000401B0000A003002016000080120000BE
:100C700040170000001900004001000000010000C2
:100C8000A01E000060070000C0060000A00D0000CC
:100C900000000000C0110000000B0000400900002F
:100CA000A00B0000801C0000A010000080000000CD
:100CB000401F0000A013000060030000C0160000E9
:100CC000E018000080150000A0040000C00500002E
:100CD000400E00004018000040000000A01F00006F
:100CE000C0190000A0010000600B0000601C0000A3
:100CF000C01A000040020000E002000020170000BF
:100D0000200C000020100000C01F0000E00C0000BC
:100D1000C0100000A0150000200E0000600D0000B3
:100D20002011000060010000800B00000016000090
:100D300000180000E01F00006006000060180000BE
:100D4000C00A000000170000A00600008018000084
:100D5000A0000000C0150000001B0000001C0000E7
:100D6000E00F000020130000201C000060050000C0
:100D7000801B000040030000401C000040100000E9
:100D8000E00A0000801D0000000E0000E0070000E7
:100D900080190000001E0000A0120000C01D00000D
:100DA000A0110000201E00002018000060150000A7
:100DB000C00E000000070000E0130000C01C00008F
:100DC000000F000040190000E01E0000C0180000E5
:100DD000001F0000000C0000A01A000060170000B7
:100DE00080130000E0090000601E00008007000082
:100DF000A00C0000600F0000600C0000800F0000DD
:100E000000060000400D0000A01B0000C00900000B
:100E1000E0140000200F0000C01300004016000086
:100E2000A007000020060000C0070000001300001B
:100E3000A0160000C00D0000E0040000601A0000D1
:100E400080170000E0190000200B0000C003000024
:100E500000030000E003000080090000400B0000D8
:100E6000E016000060120000201D0000C01B000002
:100E7000E01C000080050000E0110000800100007F
:100E8000E0010000C0140000A0050000601B00008D
:100E900020090000801E0000E00D0000600E000030
:100EA000C0120000E0080000C0000000E0000000E8
:100EB000600A0000C0020000A01D000080040000C5
:100EC000400F0000E006000020070000601900004D
:100ED0006014000060100000600000002015000099
:100EE00060110000C01E000040120000A0170000AA
:100EF0006013000080030000A01C0000201A000006
:100F00002008000020000000800A0000A008000067
:100F1000601F000020190000C00B0000A0090000A5
:100F2000C0010000401E0000000D00000004000091
:100F3000001000004015000040040000A00F000059
:100F4000800C0000E0050000C0040000E01000007C
:100F5000201F0000800600000012000000080000B2
:100F6000A00A000020020000C01700004006000098
:100F7000E01200006002000060080000801F000016
:100F800040130000000900000014000040050000AC
:100F900000110000E00B00002003000060090000C9
:100FA0002001000020140000C00F0000A019000064
:100FB00080140000001A0000A00200008008000059
:100FC000E015000080110000A01400008010000057
:100FD000000A0000E0170000C00C0000401A0000EA
:100FE000001D00004011000040140000E01A000045
:100FF000C0080000400A0000400800000015000082
:10100000E01B000060160000200D0000800E0000B4
:10101000A0180000200A0000601D0000600400000D
:101020002005000020040000801A0000E01D0000E0
:10103000201B00008016000040070000400C00004C
:1010400000050000A00E0000201200008002000039
:1010500000020000401D0000E00E0000800D0000B6
:10106000401B0000A0030000000000002400270037
:101070002A0000000000250028002B0004040404BE
:101080000404040402020202020203030303030332
:10109000010204081020408001020408102001020F
:1010A00004081020000000080002010000030407EB
:1010B0000000000000000000CA2311241FBECFEF73
:1010C000D8E0DEBFCDBF11E0A0E0B1E0E2E4F8E49B
:1010D00002C005900D92A232B107D9F722E0A2E238
:1010E000B1E001C01D92AE35B207E1F718E0CDE5E1
:1010F000D8E004C02197FE010E94F723CC35D10728
:10110000C9F70E9484220C941F240C940000EEEA7C
:10111000F0E12491EAE9F0E19491E6E8F0E1E4916C
:10112000EE23C9F0222339F0233001F1A8F4213055
:1011300019F1223029F1F0E0EE0FFF1FEE58FF4EBB
:10114000A591B4912FB7F894EC91811126C0909598
:101150009E239C932FBF08952730A9F02830C9F013
:10116000243049F7209180002F7D03C0209180001A
:101170002F7720938000DFCF24B52F7724BDDBCFDE
:1011800024B52F7DFBCF2091B0002F772093B000A6
:10119000D2CF2091B0002F7DF9CF9E2BDACF90E0F7
:1011A000FC01E057FF4E249184589F4EFC0184912E
:1011B000882399F090E0880F991FFC01E859FF4EB1
:1011C000A591B491FC01EE58FF4E859194918FB793
:1011D000F894EC91E22BEC938FBF0895AF92BF92FD
:1011E000CF92DF92EF92FF920F931F93CF93DF93F3
:1011F0006C017B018B01040F151FEB015E01AE1822
:10120000BF08C017D10759F06991D601ED91FC9143
:101210000190F081E02DC6010995892B79F7C50170
:10122000DF91CF911F910F91FF90EF90DF90CF90C2
:10123000BF90AF900895FC01538D448D252F30E071
:10124000842F90E0821B930B541710F0CF960895D3
:1012500001970895FC01918D828D981761F0A28D00
:10126000AE0FBF2FB11D5D968C91928D9F5F9F73C6
:10127000928F90E008958FEF9FEF0895FC01918D7C
:10128000828D981731F0828DE80FF11D858D90E0E9
:1012900008958FEF9FEF0895FC01918D228D892F86
:1012A00090E0805C9F4F821B91098F73992708956E
:1012B00081EB91E00E944C0921E0892B09F420E0A8
:1012C000822F089580E090E0892B29F00E94580930
:1012D00081110C9400000895FC01A48DA80FB92F72
:1012E000B11DA35ABF4F2C91848D90E001968F734E
:1012F0009927848FA689B7892C93A089B1898C916D
:10130000837080648C93938D848D981306C00288BB
:10131000F389E02D80818F7D80830895EF92FF9285
:101320000F931F93CF93DF93EC0181E0888F9B8D08
:101330008C8D98131AC0E889F989808185FF15C0C2
:101340009FB7F894EE89FF896083E889F9898081E5
:101350008370806480839FBF81E090E0DF91CF91B4
:101360001F910F91FF90EF900895F62E0B8D10E0D6
:101370000F5F1F4F0F731127E02E8C8D8E110CC045
:101380000FB607FCFACFE889F989808185FFF5CF90
:10139000CE010E946C09F1CFEB8DEC0FFD2FF11DFA
:1013A000E35AFF4FF0829FB7F8940B8FEA89FB89CD
:1013B00080818062CFCFCF93DF93EC01888D88232B
:1013C000B9F0AA89BB89E889F9898C9185FD03C0A8
:1013D000808186FD0DC00FB607FCF7CF8C9185FF8D
:1013E000F2CF808185FFEDCFCE010E946C09E9CF5D
:1013F000DF91CF9108953FB7F894809127019091A4
:101400002801A0912901B0912A0126B5A89B05C009
:101410002F3F19F00196A11DB11D3FBFBA2FA92F73
:10142000982F8827BC01CD01620F711D811D911D70
:1014300042E0660F771F881F991F4A95D1F70895DC
:101440008F929F92AF92BF92CF92DF92EF92FF92D4
:101450004B015C010E94FB096B017C010E94FB09AE
:101460006C197D098E099F09683E734081059105BD
:10147000A8F321E0821A9108A108B10888EEC80EED
:1014800083E0D81EE11CF11C81149104A104B10475
:1014900029F7FF90EF90DF90CF90BF90AF909F9093
:1014A0008F9008950F931F93CF93DF939A01EB01D1
:1014B000FC0122303105A0F49A012E7FFC01E20FDD
:1014C000F31F620F731F4217530729F09081DB014E
:1014D0008C9198279083DF91CF911F910F91089560
:1014E000A081B18109911991A027B127A193B1934E
:1014F00022503109DECF2F923F924F925F926F922E
:101500007F928F929F92AF92BF92CF92DF92EF9293
:10151000FF920F931F93CF93DF93CDB7DEB7629700
:101520000FB6F894DEBF0FBECDBF9A8B898B1B011F
:10153000DC018D909D90AD90BC90FB0180819181EC
:10154000A281B381F401E80FF91FFF27EE0FFF1FFF
:10155000EE0FFF1FE859F34F459155916591749136
:10156000880D991DAA1DBB1D092F1A2F2B2F33275C
:10157000F801FF27EE0FFF1FEE0FFF1FE859F74F8F
:10158000C590D590E590F49004E0A09FF00111245F
:10159000E859FB4F05911591259134918B2F99278F
:1015A000AA27BB27FC01EE0FFF1FEE0FFF1FE85914
:1015B000FF4F85919591A591B491C426D526E62635
:1015C000F726E989FA894480558066807780C424AB
:1015D000D524E624F724C026D126E226F326C82601
:1015E000D926EA26FB26C482D582E682F782448485
:1015F0005584668477844D825E826F827886F1019D
:101600000481158126813781F201E00FF11FFF2748
:10161000EE0FFF1FEE0FFF1FE859FB4F459055904F
:10162000659074904D815E816F817885040F151FE0
:10163000261F371FBB27A32F922F812FFC01FF27C7
:10164000EE0FFF1FEE0FFF1FE859FF4F4591559119
:101650006591749184E0289FF0011124E859F34FBB
:1016600085919591A591B491032F112722273327B6
:10167000F801EE0FFF1FEE0FFF1FE859F74F05911E
:101680001591259134914426552666267726E989B9
:10169000FA894085518562857385442655266626DC
:1016A0007726482659266A267B26B301A2014027C1
:1016B0005127622773274087518762877387F1011B
:1016C0000085118522853385F601E00FF11FFF2784
:1016D000EE0FFF1FEE0FFF1FE859F74F4590559093
:1016E0006590749049825A826B827C820C0D1D1D1C
:1016F0002E1D3F1D412E522E632E7724F201FF270F
:10170000EE0FFF1FEE0FFF1FE859FB4F85919591DC
:10171000A591B491E4E02E9F30011124F301E85922
:10172000FF4F459055906590749049865A866B8618
:101730007C86032F112722273327F801EE0FFF1F86
:10174000EE0FFF1FE859F34F059115912591349144
:1017500049805A806B807C8084259525A625B725F5
:1017600049845A846B847C8484259525A625B725D5
:1017700080279127A227B32795018401081B190B05
:101780002A0B3B0B09871A872B873C87A989BA89C3
:101790000D931D932D933C9313974C0D5D1D6E1D62
:1017A0007F1D18964D935D936D937C931B97F1016C
:1017B0000485158526853785FA01E00FF11FFF277F
:1017C000EE0FFF1FEE0FFF1FE859FB4F859095901E
:1017D000A590B490040F151F261F371F412E522EBF
:1017E000632E7724F201FF27EE0FFF1FEE0FFF1F7E
:1017F000E859FF4F85919591A591B491F4E02F9F01
:1018000030011124F301E859F34F4590559065904C
:101810007490032F112722273327F801EE0FFF1FA3
:10182000EE0FFF1FE859F74F05911591259134915F
:1018300088259925AA25BB254C015D01E1E08E266E
:1018400084249524A624B72480269126A226B32694
:10185000C80CD91CEA1CFB1CA989BA891496CD9224
:10186000DD92ED92FC9217974C195D096E097F0984
:1018700018964D935D936D937C931B97F1010089AE
:10188000118922893389FA01E00FF11FFF27EE0F3A
:10189000FF1FEE0FFF1FE859F74F85909590A59019
:1018A000B490040F151F261F371F412E522E632E92
:1018B0007724F201FF27EE0FFF1FEE0FFF1FE859FD
:1018C000FB4F85919591A591B491F4E02F9F300144
:1018D0001124F301E859FF4F45905590659074909D
:1018E000032F112722273327F801EE0FFF1FEE0FDA
:1018F000FF1FE859F34F05911591259134918825E3
:101900009925AA25BB254C015D0184249524A62494
:10191000B72480269126A226B3264D805E806F8054
:101920007884480C591C6A1C7B1C4D825E826F8235
:101930007886A989BA891C964D925D926D927C92A7
:101940001F97F1010489158926893789E985FA8568
:10195000E00FF11FFF27EE0FFF1FEE0FFF1FE859EB
:10196000FB4F85909590A590B49049845A846B84E0
:101970007C84040D151D261D371D412E522E632E0D
:101980007724F201FF27EE0FFF1FEE0FFF1FE8592C
:10199000FF4F85919591A591B49189839A83AB83EB
:1019A000BC8394E0299FF0011124E859F34F45903E
:1019B000559065907490032F112722273327F80143
:1019C000EE0FFF1FEE0FFF1FE859F74F859195911E
:1019D000A591B49109811A812B813C8180269126A1
:1019E000A226B32684249524A624B72488259925E5
:1019F000AA25BB258C259D25AE25BF25E989FA8919
:101A000084839583A683B783F101008D118D228D88
:101A1000338DED81FE81E00FF11FFF27EE0FFF1FD9
:101A2000EE0FFF1FE859F34FC590D590E590F49065
:101A30004D805E806F807884040D151D261D371D36
:101A4000812E922EA32EBB24F401FF27EE0FFF1F41
:101A5000EE0FFF1FE859F74F459055906590749031
:101A6000E4E02E9F50011124F501E859FB4F8590C9
:101A70009590A590B490032F112722273327F801C2
:101A8000EE0FFF1FEE0FFF1FE859FF4F0591159155
:101A900025913491C424D524E624F724C824D924DC
:101AA000EA24FB24C026D126E226F32626013701AC
:101AB000442655266626772649825A826B827C8286
:101AC000E989FA894086518662867386F101448DE0
:101AD000558D668D778DFC01E40FF51FFF27EE0F06
:101AE000FF1FEE0FFF1FE859F34F85909590A590CB
:101AF000B490480F591F6A1F7B1F052F162F272FE1
:101B00003327F801FF27EE0FFF1FEE0FFF1FE859E5
:101B1000F74F0591159125913491F4E06F9F700175
:101B20001124F701E859FB4F45905590659074904A
:101B3000472F552766277727FA01EE0FFF1FEE0F75
:101B4000FF1FE859FF4F459155916591749180268B
:101B50009126A226B32684249524A624B72484267D
:101B60009526A626B726CD80DE80EF80F884C8248F
:101B7000D924EA24FB24E989FA89C486D586E68635
:101B8000F786F1014081518162817381E981FA8197
:101B9000E40FF51FFF27EE0FFF1FEE0FFF1FE859A1
:101BA000FB4F059115912591349149805A806B80A6
:101BB0007C80440D551D661D771D852E962EA72E03
:101BC000BB24F401FF27EE0FFF1FEE0FFF1FE859A4
:101BD000FF4F85909590A590B490E4E06E9F300102
:101BE0001124F301E859F34F459055906590749096
:101BF000472F552766277727FA01EE0FFF1FEE0FB5
:101C0000FF1FE859F74F459155916591749108254B
:101C100019252A253B2504251525262537250427A2
:101C200015272627372789849A84AB84BC8480268D
:101C30009126A226B326E989FA8980829182A2821E
:101C4000B382F1014481558166817781F601E40F09
:101C5000F51FFF27EE0FFF1FEE0FFF1FE859F74F8D
:101C600005911591259134914C0D5D1D6E1D7F1DC3
:101C7000452E562E672E7724F201FF27EE0FFF1F09
:101C8000EE0FFF1FE859FB4F4590559065907490FB
:101C90004D825E826F827886E4E06E9F300111246F
:101CA000F301E859FF4F459055906590749049862F
:101CB0005A866B867C86472F552766277727FA0139
:101CC000EE0FFF1FEE0FFF1FE859F34F459155919F
:101CD000659174914D805E806F8078840425152510
:101CE0002625372549845A846B847C840425152550
:101CF000262537250427152726273727AC01BD01C0
:101D0000401B510B620B730B4D875E876F87788B7F
:101D1000A989BA8914964D935D936D937C93179717
:101D20008C0C9D1CAE1CBF1C8D929D92AD92BC92E2
:101D30001397F1014085518562857385F401E40FA5
:101D4000F51FFF27EE0FFF1FEE0FFF1FE859FB4F98
:101D50004590559065907490480D591D6A1D7B1DE6
:101D6000052F162F272F3327F801FF27EE0FFF1F10
:101D7000EE0FFF1FE859FF4F059115912591349102
:101D800084E0689FF0011124E859F34F8591959103
:101D9000A591B491472F552766277727FA01EE0FB3
:101DA000FF1FEE0FFF1FE859F74F459155916591C1
:101DB00074910425152526253725E2E00E27802776
:101DC0009127A227B3278C019D01042715272627D9
:101DD00037270C0D1D1D2E1D3F1DA989BA891C9684
:101DE0000D931D932D933C931F97801A910AA20A7D
:101DF000B30A8D929D92AD92BC921397F101C48467
:101E0000D584E684F784F401EC0DFD1DFF27EE0F69
:101E1000FF1FEE0FFF1FE859F74F45905590659053
:101E20007490C80CD91CEA1CFB1C77276F2D5E2D03
:101E30004D2DFA01FF27EE0FFF1FEE0FFF1FE85990
:101E4000FB4F85919591A591B49144E0E49EF001FA
:101E50001124E859FF4F4591559165917491CF2C0C
:101E6000DD24EE24FF24F601EE0FFF1FEE0FFF1F0F
:101E7000E859F34FC590D590E590F49084259525C9
:101E8000A625B7252C013D01442655266626772632
:101E90004C245D246E247F2469817A818B819C810E
:101EA000640D751D861D971D69837A838B839C83C2
:101EB000A989BA8918966D937D938D939C931B97EE
:101EC000F1014089518962897389ED85FE85E40FAE
:101ED000F51FFF27EE0FFF1FEE0FFF1FE859FB4F07
:101EE000C590D590E590F4904D845E846F84788899
:101EF000440D551D661D771D452E562E672E7724E1
:101F0000F201FF27EE0FFF1FEE0FFF1FE859FF4FF3
:101F100085919591A591B491E4E06E9F30011124D3
:101F2000F301E859F34F4590559065907490472F11
:101F3000552766277727FA01EE0FFF1FEE0FFF1FC9
:101F4000E859F74F45915591659174918C259D25E0
:101F5000AE25BF256C017D01C424D524E624F724D9
:101F6000C426D526E626F726260137014026512627
:101F7000622673264D825E826F827886A989BA892D
:101F80001C964D925D926D927C921F97F10144894F
:101F9000558966897789E981FA81E40FF51FFF2762
:101FA000EE0FFF1FEE0FFF1FE859F34F059115913C
:101FB0002591349149805A806B807C80440D551D59
:101FC000661D771DC52ED62EE72EFF24F601FF27AE
:101FD000EE0FFF1FEE0FFF1FE859F74F459055908A
:101FE0006590749084E0689FF0011124E859FB4FDC
:101FF000C590D590E590F490472F55276627772711
:10200000FA01EE0FFF1FEE0FFF1FE859FF4F8591FA
:102010009591A591B49104251525262537250C25E4
:102020001D252E253F25082719272A273B2728016C
:102030003901482459246A247B2449865A866B86B0
:102040007C86A989BA894D925D926D927C92139794
:10205000F101008D118D228D338DED81FE81E00F18
:10206000F11FFF27EE0FFF1FEE0FFF1FE859F34F81
:10207000C590D590E590F4904D805E806F80788417
:10208000040D151D261D371D7727632F522F412F55
:10209000FA01FF27EE0FFF1FEE0FFF1FE859F74F62
:1020A00085919591A591B49144E0249FF00111246C
:1020B000E859FB4F85909590A590B490032F112778
:1020C00022273327F801EE0FFF1FEE0FFF1FE859FD
:1020D000FF4F0591159125913491C826D926EA26FE
:1020E000FB26C824D924EA24FB24C026D126E226D4
:1020F000F32649805A806B807C804C245D246E24BA
:102100007F24A989BA8918964D925D926D927C922E
:102110001B97F101448D558D668D778DE985FA8584
:10212000E40FF51FFF27EE0FFF1FEE0FFF1FE8590B
:10213000FB4F85909590A590B490C984DA84EB8488
:10214000FC844C0D5D1D6E1D7F1D052F162F272F46
:102150003327F801FF27EE0FFF1FEE0FFF1FE8598F
:10216000FF4F85919591A591B49104E0609FF00196
:102170001124E859F34F0591159125913491472F7A
:10218000552766277727FA01EE0FFF1FEE0FFF1F77
:10219000E859F74F45915591659174918825992596
:1021A000AA25BB254C015D0180269126A226B326D7
:1021B00084269526A626B726CD84DE84EF84F8886B
:1021C000C824D924EA24FB24A989BA891496CD927B
:1021D000DD92ED92FC921797F10180809180A280B0
:1021E000B380F201E80DF91DFF27EE0FFF1FEE0F80
:1021F000FF1FE859F74F4591559165917491840CF3
:10220000951CA61CB71C33272B2D1A2D092DF80160
:10221000FF27EE0FFF1FEE0FFF1FE859FB4F8591C1
:102220009591A591B49104E0A09EF0011124E85984
:10223000FF4F05911591259134918B2C9924AA2457
:10224000BB24F401EE0FFF1FEE0FFF1FE859F34F01
:1022500085909590A590B49084279527A627B727B9
:10226000AC01BD0140275127622773274825592516
:102270006A257B258D819E81AF81B885841B950B56
:10228000A60BB70B8D839E83AF83B887E989FA8944
:1022900084879587A687B787C40CD51CE61CF71CD6
:1022A000C482D582E682F782F10184809580A6807F
:1022B000B780F601E80DF91DFF27EE0FFF1FEE0FA7
:1022C000FF1FE859FB4F05911591259134918C0C16
:1022D0009D1CAE1CBF1C77276B2D5A2D492DFA0172
:1022E000FF27EE0FFF1FEE0FFF1FE859FF4F45912D
:1022F00055916591749184E0A89EF0011124E859EC
:10230000F34F85919591A591B4918B2C9924AA2492
:10231000BB24F401EE0FFF1FEE0FFF1FE859F74F2C
:1023200085909590A590B4900427152726273727E8
:10233000E3E00E27082719272A273B270825192518
:102340002A253B25B901A801440D551D661D771DA1
:10235000A989BA8918964D935D936D937C931B97C9
:10236000C41AD50AE60AF70A1496CD92DD92ED92C8
:10237000FC921797F1010085118522853385F601BE
:10238000E00FF11FFF27EE0FFF1FEE0FFF1FE859B1
:10239000F74F45905590659074900C0D1D1D2E1DA6
:1023A0003F1D812E922EA32EBB24F401FF27EE0F9A
:1023B000FF1FEE0FFF1FE859FB4F85919591A591E7
:1023C000B491F4E02F9F50011124F501E859FF4F1B
:1023D00085909590A590B490032F1127222733273D
:1023E000F801EE0FFF1FEE0FFF1FE859F34F0591A5
:1023F00015912591349184259525A625B7252C0185
:102400003D01482459246A247B2440265126622613
:10241000732689849A84AB84BC84840C951CA61C86
:10242000B71C89869A86AB86BC86A989BA898D92A3
:102430009D92AD92BC921397F10104851585268576
:102440003785ED81FE81E00FF11FFF27EE0FFF1FA3
:10245000EE0FFF1FE859FB4F85909590A590B49023
:102460004D805E806F807884040D151D261D371DFC
:10247000412E522E632E7724F201FF27EE0FFF1F0D
:10248000EE0FFF1FE859FF4F85919591A591B491EB
:10249000E4E02E9F30011124F301E859F34F4590F9
:1024A000559065907490032F112722273327F80148
:1024B000EE0FFF1FEE0FFF1FE859F74F0591159123
:1024C0002591349188259925AA25BB254C015D01CC
:1024D00084249524A624B72480269126A226B326F8
:1024E00024013501442655266626772649825A82DC
:1024F0006B827C82A989BA8918964D925D926D9201
:102500007C921B97F1014089518962897389E98521
:10251000FA85E40FF51FFF27EE0FFF1FEE0FFF1FD9
:10252000E859F34F059115912591349149845A84C6
:102530006B847C84440D551D661D771D852E962E5B
:10254000A72EBB24F401FF27EE0FFF1FEE0FFF1F86
:10255000E859F74F459055906590749084E0689FD6
:10256000F0011124E859FB4F85909590A590B49007
:10257000472F552766277727FA01EE0FFF1FEE0F2B
:10258000FF1FE859FF4F85919591A591B4910425BE
:10259000152526253725082519252A253B25082711
:1025A00019272A273B27280139014C245D246E2452
:1025B0007F244D865E866F86788AA989BA891496AB
:1025C0004D925D926D927C921797F10144895589E5
:1025D00066897789E981FA81E40FF51FFF27EE0FFD
:1025E000FF1FEE0FFF1FE859F34F0591159125913D
:1025F000349149805A806B807C80440D551D661D46
:10260000771DC52ED62EE72EFF24F601FF27EE0FED
:10261000FF1FEE0FFF1FE859F74F85909590A5908B
:10262000B49084E0689FF0011124E859FB4FC590F5
:10263000D590E590F490472F552766277727FA0124
:10264000EE0FFF1FEE0FFF1FE859FF4F8591959189
:10265000A591B491082519252A253B250C251D2572
:102660002E253F25082719272A273B2749845A84E6
:102670006B847C844026512662267326A989BA89F8
:102680004D925D926D927C921397F101808C918CAA
:10269000A28CB38CED85FE85E80DF91DFF27EE0FAA
:1026A000FF1FEE0FFF1FE859FB4FC590D590E59037
:1026B000F4900D851E852F853889800E911EA21EEF
:1026C000B31E77276B2D5A2D492DFA01FF27EE0FE8
:1026D000FF1FEE0FFF1FE859FF4F85919591A591C0
:1026E000B49114E0A19EF0011124E859F34F4591F3
:1026F0005591659174918B2C9924AA24BB24F401E3
:10270000EE0FFF1FEE0FFF1FE859F74F85909590D2
:10271000A590B4908C259D25AE25BF256C017D012B
:10272000C426D526E626F726C824D924EA24FB2485
:102730000D811E812F8138850C251D252E253F25D5
:10274000A989BA891C960D931D932D933C931F97CD
:10275000F101C48CD58CE68CF78CF201EC0DFD1DDB
:10276000FF27EE0FFF1FEE0FFF1FE859F74F4591B0
:10277000559165917491C40CD51CE61CF71C8D2CE9
:102780009E2CAF2CBB24F401FF27EE0FFF1FEE0F92
:10279000FF1FE859FB4F85919591A591B491F4E005
:1027A000EF9E50011124F501E859FF4F8590959057
:1027B000A590B490CF2CDD24EE24FF24F601EE0F7B
:1027C000FF1FEE0FFF1FE859F34FC590D590E5901E
:1027D000F49084279527A627B727AC01BD0148258B
:1027E00059256A257B254C255D256E257F25898009
:1027F0009A80AB80BC80841A950AA60AB70A89829F
:102800009A82AB82BC82A989BA8918968D929D92D0
:10281000AD92BC921B97040D151D261D371D1C96ED
:102820000D931D932D933C931F97F101C080D18090
:10283000E280F380F801EC0DFD1DFF27EE0FFF1F76
:10284000EE0FFF1FE859FB4F45915591659174912B
:10285000C00ED11EE21EF31E8D2C9E2CAF2CBB246D
:10286000F401FF27EE0FFF1FEE0FFF1FE859FF4F88
:1028700085909590A590B49084E0E89EF001112495
:10288000E859F34F85919591A591B491CF2CDD2412
:10289000EE24FF24F601EE0FFF1FEE0FFF1FE85995
:1028A000F74FC590D590E590F49084269526A626FE
:1028B000B726E4E08E2688259925AA25BB254C015C
:1028C0005D018C249D24AE24BF24840C951CA61C81
:1028D000B71CA989BA898D929D92AD92BC9213972B
:1028E000081919092A093B091C960D931D932D936C
:1028F0003C931F97F1014481558166817781F801EE
:10290000E40FF51FFF27EE0FFF1FEE0FFF1FE85923
:10291000F74F4590559065907490400F511F621F7E
:10292000731FC52ED62EE72EFF24F601FF27EE0FCC
:10293000FF1FEE0FFF1FE859FB4F85919591A59161
:10294000B491F4E06F9F70011124F701E859FF4F33
:10295000C590D590E590F490472F552766277727A7
:10296000FA01EE0FFF1FEE0FFF1FE859F34F4591DD
:1029700055916591749184259525A625B7252C013F
:102980003D014C245D246E247F2444265526662672
:102990007726CD84DE84EF84F888C40CD51CE61C31
:1029A000F71CCD86DE86EF86F88AA989BA89149647
:1029B000CD92DD92ED92FC921797F1014085518501
:1029C00062857385E981FA81E40FF51FFF27EE0F19
:1029D000FF1FEE0FFF1FE859FB4FC590D590E59004
:1029E000F49049805A806B807C80440D551D661D93
:1029F000771D452E562E672E7724F201FF27EE0F06
:102A0000FF1FEE0FFF1FE859FF4F85919591A5918C
:102A1000B491E4E06E9F30011124F301E859F34FC3
:102A20004590559065907490472F552766277727D6
:102A3000FA01EE0FFF1FEE0FFF1FE859F74F459108
:102A40005591659174918C259D25AE25BF256C010E
:102A50007D01C424D524E624F724C426D526E62601
:102A6000F72626013701482459246A247B244D8205
:102A70005E826F827886A989BA894D925D926D9245
:102A80007C921397F1014485558566857785ED85A0
:102A9000FE85E40FF51FFF27EE0FFF1FEE0FFF1F50
:102AA000E859F34FC590D590E590F4904D845E843D
:102AB0006F847888440D551D661D771D852E962ED2
:102AC000A72EBB24F401FF27EE0FFF1FEE0FFF1F01
:102AD000E859F74F459055906590749084E0689F51
:102AE000F0011124E859FB4F85909590A590B49082
:102AF000472F552766277727FA01EE0FFF1FEE0FA6
:102B0000FF1FE859FF4F85919591A591B491C42479
:102B1000D524E624F724C824D924EA24FB24C82693
:102B2000D926EA26FB2626013701402651266226B1
:102B3000732649865A866B867C86A989BA891C9633
:102B40004D925D926D927C921F97F101408951895F
:102B500062897389ED81FE81E40FF51FFF27EE0F77
:102B6000FF1FEE0FFF1FE859F34F059115912591B7
:102B700034914D805E806F807884440D551D661DB4
:102B8000771DC52ED62EE72EFF24F601FF27EE0F68
:102B9000FF1FEE0FFF1FE859F74FC590D590E59046
:102BA000F49084E0689FF0011124E859FB4F859070
:102BB0009590A590B490472F552766277727FA015F
:102BC000EE0FFF1FEE0FFF1FE859FF4F8591959104
:102BD000A591B4910C251D252E253F2508251925E5
:102BE0002A253B25082719272A273B274D845E8461
:102BF0006F8478884026512662267326A989BA896F
:102C000014964D925D926D927C921797F101C48853
:102C1000D588E688F788E985FA85EC0DFD1DFF2744
:102C2000EE0FFF1FEE0FFF1FE859FB4F85909590A9
:102C3000A590B49009851A852B853C85C00ED11EC0
:102C4000E21EF31E77276F2D5E2D4D2DFA01FF2713
:102C5000EE0FFF1FEE0FFF1FE859FF4F8591959173
:102C6000A591B49114E0E19EF0011124E859F34FCD
:102C70000591159125913491CF2CDD24EE24FF246C
:102C8000F601EE0FFF1FEE0FFF1FE859F74FC5903B
:102C9000D590E590F49088269926AA26BB26802612
:102CA0009126A226B3268C249D24AE24BF244981DC
:102CB0005A816B817C81482559256A257B25A98904
:102CC000BA8918964D935D936D937C931B97F10190
:102CD000808C918CA28CB38CF201E80DF91DFF273A
:102CE000EE0FFF1FEE0FFF1FE859F74F05911591EB
:102CF00025913491840C951CA61CB71CFF24EB2C49
:102D0000DA2CC92CF601FF27EE0FFF1FEE0FFF1F75
:102D1000E859FB4F85919591A591B491F4E0AF9E50
:102D200070011124F701E859FF4FC590D590E59047
:102D3000F4908B2C9924AA24BB24F401EE0FFF1FDE
:102D4000EE0FFF1FE859F34F85909590A590B49032
:102D500080279127A227B3278C019D010C251D25D3
:102D60002E253F25082519252A253B258D809E8067
:102D7000AF80B884801A910AA20AB30A8D829E821B
:102D8000AF82B886A989BA898D929D92AD92BC9284
:102D90001397440D551D661D771D18964D935D9331
:102DA0006D937C931B97F101848C958CA68CB78CCA
:102DB000FA01E80DF91DFF27EE0FFF1FEE0FFF1FB1
:102DC000E859FB4F0591159125913491840E951E7C
:102DD000A61EB71EFF24EB2CDA2CC92CF601FF2708
:102DE000EE0FFF1FEE0FFF1FE859FF4FC590D59064
:102DF000E590F49084E0A89EF0011124E859F34F87
:102E000085919591A591B4918B2C9924AA24BB24EA
:102E1000F401EE0FFF1FEE0FFF1FE859F74F8590EB
:102E20009590A590B490C026D126E226F326E5E041
:102E3000CE268C259D25AE25BF256C017D01C8249D
:102E4000D924EA24FB24C40CD51CE61CF71CA98950
:102E5000BA891496CD92DD92ED92FC9217974C1997
:102E60005D096E097F0918964D935D936D937C9370
:102E70001B97F10180809180A280B380FA01E80D58
:102E8000F91DFF27EE0FFF1FEE0FFF1FE859F74F49
:102E90004590559065907490840E951EA61EB71EA1
:102EA00033272B2D1A2D092DF801FF27EE0FFF1FB9
:102EB000EE0FFF1FE859FB4F85919591A591B491B5
:102EC00004E0A09EF0011124E859FF4F05911591EF
:102ED000259134918B2C9924AA24BB24F401EE0F64
:102EE000FF1FEE0FFF1FE859F34F85909590A590B7
:102EF000B49084259525A625B7252C013D014026B3
:102F0000512662267326482459246A247B24898505
:102F10009A85AB85BC85840D951DA61DB71D898737
:102F20009A87AB87BC87E989FA8984879587A687C2
:102F3000B787D10114968D909D90AD90BC90179756
:102F4000ED81FE81E80DF91DFF27EE0FFF1FEE0F4B
:102F5000FF1FE859FB4F05911591259134914D8044
:102F60005E806F807884840C951CA61CB71C492C4D
:102F70005A2C6B2C7724F201FF27EE0FFF1FEE0F68
:102F8000FF1FE859FF4F85919591A591B4918983D1
:102F90009A83AB83BC8394E0A99EF0011124E85985
:102FA000F34F45905590659074908B2C9924AA24EA
:102FB000BB24F401EE0FFF1FEE0FFF1FE859F74F80
:102FC00085919591A591B49189809A80AB80BC80C0
:102FD000082519252A253B250425152526253725CD
:102FE00080279127A227B3278C259D25AE25BF25B5
:102FF000E989FA8984839583A683B783F1010085E3
:10300000118522853385E985FA85E00FF11FFF27B9
:10301000EE0FFF1FEE0FFF1FE859F34FC590D5903D
:10302000E590F49049845A846B847C84040D151DCA
:10303000261D371D812E922EA32EBB24F401FF27BF
:10304000EE0FFF1FEE0FFF1FE859F74F4590559009
:1030500065907490E4E02E9F50011124F501E85929
:10306000FB4F85909590A590B490032F11272227B0
:103070003327F801EE0FFF1FEE0FFF1FE859FF4F38
:103080000591159125913491C424D524E624F72483
:10309000C824D924EA24FB24C026D126E226F3261C
:1030A00026013701442655266626772649825A820C
:1030B0006B827C82E989FA894086518662867386B2
:1030C000F1014485558566857785FC01E40FF51F80
:1030D000FF27EE0FFF1FEE0FFF1FE859F34F8590FC
:1030E0009590A590B490480F591F6A1F7B1F052F1C
:1030F000162F272F3327F801FF27EE0FFF1FEE0FA4
:10310000FF1FE859F74F0591159125913491F4E08F
:103110006F9F70011124F701E859FB4F45905590BE
:1031200065907490472F552766277727FA01EE0F91
:10313000FF1FEE0FFF1FE859FF4F45915591659115
:10314000749180269126A226B32684249524A62451
:10315000B72484269526A626B726C984DA84EB846C
:10316000FC84C824D924EA24FB24E989FA89C4868A
:10317000D586E686F786F10100891189228933898F
:10318000E981FA81E00FF11FFF27EE0FFF1FEE0F1D
:10319000FF1FE859FB4F45905590659074908980CA
:1031A0009A80AB80BC80080D191D2A1D3B1D772716
:1031B000632F522F412FFA01FF27EE0FFF1FEE0F53
:1031C000FF1FE859FF4F85909590A590B49044E07B
:1031D000249FF0011124E859F34F459155916591D1
:1031E0007491032F112722273327F801EE0FFF1FB9
:1031F000EE0FFF1FE859F74F059115912591349176
:10320000482459246A247B2444265526662677269A
:1032100040265126622673268D809E80AF80B8841A
:1032200084249524A624B724E989FA89808291828E
:10323000A282B382F1014488558866887788F601B6
:10324000E40DF51DFF27EE0FFF1FEE0FFF1FE859DE
:10325000F74F45915591659174914C0C5D1C6E1C16
:103260007F1C3327272D162D052DF801FF27EE0F84
:10327000FF1FEE0FFF1FE859FB4F05911591259198
:1032800034910D831E832F83388714E0619EF001F3
:103290001124E859FF4F0591159125913491098723
:1032A0001A872B873C87472C552466247724F20104
:1032B000EE0FFF1FEE0FFF1FE859F34F459055909B
:1032C000659074900D811E812F813885402751278C
:1032D0006227732709851A852B853C85402751274E
:1032E0006227732744255525662577252C013D0146
:1032F000441A550A660A770A49865A866B867C867E
:10330000A989BA8914964D925D926D927C92179715
:103310008C0C9D1CAE1CBF1C8D929D92AD92BC92DC
:103320001397F101408C518C628C738CF401E40D85
:10333000F51DFF27EE0FFF1FEE0FFF1FE859FB4F94
:103340004591559165917491480C591C6A1C7B1CE0
:103350003327272D162D052DF801FF27EE0FFF1F10
:10336000EE0FFF1FE859FF4F0591159125913491FC
:1033700084E0689EF0011124E859F34F85919591FE
:10338000A591B491472C552466247724F201EE0FC1
:10339000FF1FEE0FFF1FE859F74F459055906590BE
:1033A00074900427152726273727E6E00E27802765
:1033B0009127A227B3278C019D01042515252625D9
:1033C00037250C0D1D1D2E1D3F1DA989BA891C9680
:1033D0000D931D932D933C931F97801A910AA20A77
:1033E000B30A8D929D92AD92BC921397F101C48C59
:1033F000D58CE68CF78CF401EC0DFD1DFF27EE0F4C
:10340000FF1FEE0FFF1FE859F74F4590559065904D
:103410007490C80CD91CEA1CFB1C77276F2D5E2DFD
:103420004D2DFA01FF27EE0FFF1FEE0FFF1FE8598A
:10343000FB4F85919591A591B49144E0E49EF001F4
:103440001124E859FF4F4591559165917491CF2C06
:10345000DD24EE24FF24F601EE0FFF1FEE0FFF1F09
:10346000E859F34FC590D590E590F49084259525C3
:10347000A625B7252C013D0144265526662677262C
:103480004C245D246E247F2469817A818B819C8108
:10349000640D751D861D971D69837A838B839C83BC
:1034A000A989BA8918966D937D938D939C931B97E8
:1034B000F101C080D180E280F380E985FA85EC0DCE
:1034C000FD1DFF27EE0FFF1FEE0FFF1FE859FB4FFB
:1034D000459155916591749149845A846B847C849B
:1034E000C40CD51CE61CF71C4D2C5E2C6F2C7724CD
:1034F000F201FF27EE0FFF1FEE0FFF1FE859FF4FEE
:1035000085919591A591B491E4E0EE9E300111244E
:10351000F301E859F34F4590559065907490CF2C86
:10352000DD24EE24FF24F601EE0FFF1FEE0FFF1F38
:10353000E859F74FC590D590E590F49084279527EA
:10354000A627B727AC01BD0144255525662577255B
:103550004C255D256E257F252A013B0140265126FD
:10356000622673264D825E826F827886A989BA8927
:103570001C964D925D926D927C921F97F101448151
:10358000558166817781E981FA81E40FF51FFF2774
:10359000EE0FFF1FEE0FFF1FE859F34F0591159136
:1035A0002591349149805A806B807C80440D551D53
:1035B000661D771DC52ED62EE72EFF24F601FF27A8
:1035C000EE0FFF1FEE0FFF1FE859F74FC590D59084
:1035D000E590F49084E0689FF0011124E859FB4FD6
:1035E0004590559065907490472F5527662777270B
:1035F000FA01EE0FFF1FEE0FFF1FE859FF4F8591F5
:103600009591A591B4910C251D252E253F250425C6
:10361000152526253725082719272A273B2728017E
:103620003901482459246A247B244D865E866F869E
:10363000788AA989BA894D925D926D927C9213978E
:10364000F1010085118522853385ED81FE81E00F32
:10365000F11FFF27EE0FFF1FEE0FFF1FE859F34F7B
:10366000C590D590E590F4904D805E806F80788411
:10367000040D151D261D371D7727632F522F412F4F
:10368000FA01FF27EE0FFF1FEE0FFF1FE859F74F5C
:1036900085919591A591B49144E0249FF001112466
:1036A000E859FB4F4590559065907490032F112772
:1036B00022273327F801EE0FFF1FEE0FFF1FE859F7
:1036C000FF4F0591159125913491C826D926EA26F8
:1036D000FB26C424D524E624F724C026D126E226DE
:1036E000F32689809A80AB80BC808C249D24AE24F4
:1036F000BF24A989BA8918968D929D92AD92BC92E9
:103700001B97F1014485558566857785ED85FE8596
:10371000E40FF51FFF27EE0FFF1FEE0FFF1FE85905
:10372000FB4F4590559065907490CD84DE84EF8476
:10373000F8884C0D5D1D6E1D7F1D052F162F272F40
:103740003327F801FF27EE0FFF1FEE0FFF1FE85989
:10375000FF4F85919591A591B49104E0609FF00190
:103760001124E859F34FC590D590E590F490472F78
:10377000552766277727FA01EE0FFF1FEE0FFF1F71
:10378000E859F74F45915591659174918425952598
:10379000A625B7252C013D014C245D246E247F24F1
:1037A000442655266626772609851A852B853C856D
:1037B0000425152526253725A989BA8914960D9340
:1037C0001D932D933C931797F1014088518862888F
:1037D0007388F401E40DF51DFF27EE0FFF1FEE0FB8
:1037E000FF1FE859F74F4591559165917491480C29
:1037F000591C6A1C7B1CFF24E72CD62CC52CF60117
:10380000FF27EE0FFF1FEE0FFF1FE859FB4F8591BB
:103810009591A591B491F4E06F9E70011124F70188
:10382000E859FF4FC590D590E590F490472C55246A
:1038300066247724F201EE0FFF1FEE0FFF1FE859F9
:10384000F34F459055906590749084279527A6274F
:10385000B727AC01BD014C255D256E257F2544258C
:103860005525662577254D805E806F807884441AC3
:10387000550A660A770A4D825E826F827886A98928
:10388000BA891C964D925D926D927C921F9775013C
:103890006401C00ED11EE21EF31E1496CD92DD927D
:1038A000ED92FC921797F1014488558866887788D5
:1038B000F601E40DF51DFF27EE0FFF1FEE0FFF1FB2
:1038C000E859FB4F05911591259134914C0C5D1CE5
:1038D0006E1C7F1CBB27A72D962D852DFC01FF2775
:1038E000EE0FFF1FEE0FFF1FE859FF4F4591559157
:1038F0006591749184E0689EF0011124E859F34FBA
:1039000085919591A591B491472C552466247724EF
:10391000F201EE0FFF1FEE0FFF1FE859F74F459022
:103920005590659074904027512762277327E7E0F0
:103930004E27482759276A277B2744255525662582
:103940007725480D591D6A1D7B1DA989BA891896CE
:103950004D935D936D937C931B9797018601041B98
:10396000150B260B370B14960D931D932D933C933B
:103970001797F101408C518C628C738CF801E40D27
:10398000F51DFF27EE0FFF1FEE0FFF1FE859F74F42
:10399000C590D590E590F490400E511E621E731EA6
:1039A000BB24A72C962C852CF401FF27EE0FFF1FBC
:1039B000EE0FFF1FE859FB4F85909590A590B490AE
:1039C00089829A82AB82BC8284E0689EF0011124D5
:1039D000E859FF4F85909590A590B490472C5524B9
:1039E00066247724F201EE0FFF1FEE0FFF1FE85948
:1039F000F34F85919591A591B49149805A806B8040
:103A00007C80C424D524E624F724C824D924EA24BD
:103A1000FB248C259D25AE25BF256D847E848F8457
:103A20009888860D971DA81DB91DE989FA8980839C
:103A30009183A283B383F101C48CD58CE68CF78C7F
:103A4000ED81FE81EC0DFD1DFF27EE0FFF1FEE0F38
:103A5000FF1FE859FB4F85909590A590B4904D803D
:103A60005E806F807884C40CD51CE61CF71C4D2C3E
:103A70005E2C6F2C7724F201FF27EE0FFF1FEE0F55
:103A8000FF1FE859FF4F459055906590749049820B
:103A90005A826B827C82E4E0EE9E30011124F301B5
:103AA000E859F34F459055906590749049865A8631
:103AB0006B867C86CF2CDD24EE24FF24F601EE0FEE
:103AC000FF1FEE0FFF1FE859F74FC590D590E59007
:103AD000F49049805A806B807C8084249524A624AD
:103AE000B72449845A846B847C8484249524A62436
:103AF000B7248C249D24AE24BF2475016401C42600
:103B0000D526E626F726C982DA82EB82FC82E9898D
:103B1000FA89C086D186E286F386F101408151811F
:103B200062817381FC01E40FF51FFF27EE0FFF1F79
:103B3000EE0FFF1FE859F34FC590D590E590F49034
:103B4000480F591F6A1F7B1F852E962EA72EBB2458
:103B5000F401FF27EE0FFF1FEE0FFF1FE859F74F8D
:103B60004590559065907490F4E06F9F500111243A
:103B7000F501E859FB4F85909590A590B490472F9B
:103B8000552766277727FA01EE0FFF1FEE0FFF1F5D
:103B9000E859FF4F4591559165917491C424D524FE
:103BA000E624F724C824D924EA24FB24C426D526F5
:103BB000E626F7262601370140265126622673267F
:103BC00049865A866B867C86E989FA8944825582C1
:103BD00066827782F1014481558166817781E9812E
:103BE000FA81E40FF51FFF27EE0FFF1FEE0FFF1FF7
:103BF000E859F34F459055906590749089809A806C
:103C0000AB80BC80480D591D6A1D7B1D052F162FEA
:103C1000272F3327F801FF27EE0FFF1FEE0FFF1F9F
:103C2000E859F74FC590D590E590F49004E0609F77
:103C3000F0011124E859FB4F05911591259134911C
:103C4000472F552766277727FA01EE0FFF1FEE0F44
:103C5000FF1FE859FF4F45915591659174914C2490
:103C60005D246E247F244026512662267326442636
:103C700055266626772693018201082719272A27C9
:103C80003B27A989BA890D931D932D933C931397D4
:103C9000F10180849184A284B384E985FA85E80DDA
:103CA000F91DFF27EE0FFF1FEE0FFF1FE859FB4F17
:103CB0004590559065907490C984DA84EB84FC84B7
:103CC0008C0C9D1CAE1CBF1C77276B2D5A2D492DCB
:103CD000FA01FF27EE0FFF1FEE0FFF1FE859FF4FFE
:103CE00085919591A591B49144E0A49EF001112491
:103CF000E859F34FC590D590E590F4908B2C99241A
:103D0000AA24BB24F401EE0FFF1FEE0FFF1FE8599A
:103D1000F74F85909590A590B490482659266A262D
:103D20007B264C245D246E247F24B301A201482508
:103D300059256A257B258D819E81AF81B8854827CD
:103D400059276A277B27A989BA891C964D935D93C9
:103D50006D937C931F97F10184849584A684B78426
:103D6000F801E80DF91DFF27EE0FFF1FEE0FFF1FF3
:103D7000E859F74FC590D590E590F490800E911ECC
:103D8000A21EB31E492C5A2C6B2C7724F201FF275C
:103D9000EE0FFF1FEE0FFF1FE859FB4F8591959126
:103DA000A591B491F4E0AF9E30011124F301E859DC
:103DB000FF4F45905590659074908B2C9924AA24C0
:103DC000BB24F401EE0FFF1FEE0FFF1FE859F34F66
:103DD00085909590A590B4908C259D25AE25BF2506
:103DE0006C017D01C424D524E624F724C824D924F9
:103DF000EA24FB2449805A806B807C804C185D0843
:103E00006E087F0849825A826B827C82A989BA89AE
:103E100018964D925D926D927C921B97400F511FA8
:103E2000621F731F1C964D935D936D937C931F9738
:103E3000F1014088518862887388FA01E40DF51D0C
:103E4000FF27EE0FFF1FEE0FFF1FE859FB4FA59056
:103E5000B590C590D490440E551E661E771EBB27A4
:103E6000A72D962D852DFC01FF27EE0FFF1FEE0FCE
:103E7000FF1FE859FF4F85919591A591B4918D83CE
:103E80009E83AF83B88794E0699EF0011124E859BE
:103E9000F34F85919591A591B4918D879E87AF87BA
:103EA000B88B472C552466247724F201EE0FFF1FB0
:103EB000EE0FFF1FE859F74F4590559065907490AD
:103EC0008D819E81AF81B885A826B926CA26DB26BA
:103ED00098E0A9268D859E85AF85B8898A259B2582
:103EE000AC25BD2584259525A625B7254C015D016A
:103EF000800E911EA21EB31EA989BA898D929D9231
:103F0000AD92BC9213972A013B01481859086A08E0
:103F10007B084D825E826F8278861C964D925D9200
:103F20006D927C921F97F101448955896689778942
:103F3000F201E40FF51FFF27EE0FFF1FEE0FFF1F2B
:103F4000E859F74FC590D590E590F490440D551D74
:103F5000661D771D052F162F272F3327F801FF2702
:103F6000EE0FFF1FEE0FFF1FE859FB4F8591959154
:103F7000A591B49104E0609FF0011124E859FF4F2E
:103F80004590559065907490472F55276627772761
:103F9000FA01EE0FFF1FEE0FFF1FE859F34F459197
:103FA0005591659174918C259D25AE25BF256C0199
:103FB0007D01C424D524E624F724C426D526E6268C
:103FC000F72609851A852B853C850C0D1D1D2E1D98
:103FD0003F1DA989BA8914960D931D932D933C9387
:103FE0001797F101408D518D628D738DE981FA81B2
:103FF000E40FF51FFF27EE0FFF1FEE0FFF1FE8591D
:10400000FB4F4590559065907490C980DA80EB80A5
:10401000FC804C0D5D1D6E1D7F1DC52ED62EE72E1E
:10402000FF24F601FF27EE0FFF1FEE0FFF1FE859D9
:10403000FF4FC590D590E590F49084E0689FF00123
:104040001124E859F34F85919591A591B491472F8B
:10405000552766277727FA01EE0FFF1FEE0FFF1F88
:10406000E859F74F45915591659174914C245D2421
:104070006E247F2484259525A625B7252C013D0196
:10408000442655266626772673016201C824D92462
:10409000EA24FB24A989BA89CD92DD92ED92FC92A3
:1040A0001397F101448D558D668D778DF801E40FDE
:1040B000F51FFF27EE0FFF1FEE0FFF1FE859F34F0D
:1040C00085909590A590B490400F511F621F731F6B
:1040D000452E562E672E7724F201FF27EE0FFF1F85
:1040E000EE0FFF1FE859F74F85919591A591B49177
:1040F000F4E06F9F30011124F301E859FB4F459024
:10410000559065907490472F552766277727FA01B9
:10411000EE0FFF1FEE0FFF1FE859FF4F459155911E
:1041200065917491E989FA8900831183228333832D
:1041300009811A812B813C8104871587268737875F
:10414000C086D186E286F38688259925AA25BB25D7
:10415000482659266A267B26442555256625772537
:104160004D805E806F8078844425552566257725AF
:10417000448355836683778362960FB6F894DEBFD7
:104180000FBECDBFDF91CF911F910F91FF90EF90A8
:10419000DF90CF90BF90AF909F908F907F906F9067
:1041A0005F904F903F902F900895EF92FF920F9362
:1041B0001F93CF93DF937C01FB018B01005C1F4FAA
:1041C000D8018D919C91EB01E0960097B9F0BE016A
:1041D000681B790B605F7F4F41E050E0C7010E9490
:1041E000520AF80180819181019791838083DF9148
:1041F000CF911F910F91FF90EF90089580A191A111
:10420000A2A1B3A10196A11DB11D80A391A3A2A358
:10421000B3A3892B8A2B8B2B49F584A195A1A6A149
:10422000B7A10196A11DB11D84A395A3A6A3B7A311
:10423000892B8A2B8B2BD1F480A591A5A2A5B3A5A0
:104240000196A11DB11D80A791A7A2A7B3A7892B95
:104250008A2B8B2B59F484A595A5A6A5B7A5019605
:10426000A11DB11D84A795A7A6A7B7A780A191A15D
:1042700091AB80AB82A193A193AB82AB84A195A1BA
:1042800095AB84AB86A197A197AB86ABBF01CE015E
:104290000E947B0A41E050E0BE01C7010E94520A21
:1042A0008FE090E0D8018D939C93A1CF8EBD00004C
:1042B0000DB407FEFDCF8EB508950F931F93CF93D6
:1042C000DF93EC018B01AB016EE472E00E94FD23F1
:1042D000C80183709927009759F044E050E0481BCB
:1042E000590B70E060E0CE01800F911F0E940F24F7
:1042F00000311105B9F588819981AA81BB81888B2C
:10430000998BAA8BBB8B8C819D81AE81BF818C8B5D
:104310009D8BAE8BBF8B88859985AA85BB85888F41
:10432000998FAA8FBB8F8C859D85AE85BF858C8F1D
:104330009D8FAE8FBF8F80E1E2E1F1E0DE019096CC
:1043400001900D928A95E1F7BE01CE0180960E9400
:104350007B0AC05CDF4F19821882DF91CF911F91D9
:104360000F9108950831110531F788819981AA814B
:10437000BB814C815D816E817F8184279527A62733
:10438000B727488559856A857B8584279527A62781
:10439000B727888F998FAA8FBB8F8C859D85AE8517
:1043A000BF85488959896A897B8984279527A627EB
:1043B000B7274C895D896E897F8984279527A62731
:1043C000B727B5CF1F920F920FB60F9211242F93DC
:1043D0003F934F935F936F937F938F939F93AF938D
:1043E000BF93EF93FF9381EB91E00E946C09FF91E3
:1043F000EF91BF91AF919F918F917F916F915F915D
:104400004F913F912F910F900FBE0F901F901895D5
:104410001F920F920FB60F9211242F938F939F9399
:10442000EF93FF93E091C101F091C2018081E0918F
:10443000C701F091C80182FD1BC090818091CA0123
:104440008F5F8F732091CB01821741F0E091CA01F9
:10445000F0E0EF54FE4F958F8093CA01FF91EF91EA
:104460009F918F912F910F900FBE0F901F901895D5
:104470008081F4CF1F920F920FB60F9211242F93C9
:104480003F938F939F93AF93BF938091230190911C
:104490002401A0912501B09126013091220123E051
:1044A000230F2D3758F50196A11DB11D2093220130
:1044B0008093230190932401A0932501B0932601BA
:1044C0008091270190912801A0912901B0912A01A2
:1044D0000196A11DB11D8093270190932801A093FF
:1044E0002901B0932A01BF91AF919F918F913F9184
:1044F0002F910F900FBE0F901F90189526E8230F55
:104500000296A11DB11DD2CFCF93DF93CDB7DEB7F9
:1045100060970FB6F894DEBF0FBECDBF789484B518
:10452000826084BD84B5816084BD85B5826085BDAF
:1045300085B5816085BD80916E00816080936E003D
:10454000109281008091810082608093810080912F
:1045500081008160809381008091800081608093E0
:1045600080008091B10084608093B1008091B000A0
:1045700081608093B00080917A00846080937A009B
:1045800080917A00826080937A0080917A008160C5
:1045900080937A0080917A00806880937A001092EC
:1045A000C1001FB7F89480912B01811123C0E6E868
:1045B000F0E18491EAE9F0E19491E82FF0E0EE0F68
:1045C000FF1FE859FF4EA591B491EC91E92319F42E
:1045D00081E00E9487088AE00E94CF088CB5806144
:1045E0008CBD8CB580648CBD8DE00E94CF088BE0C3
:1045F0000E94CF0880912B018F5F80932B011FBFFA
:104600008CB58F7D8CBD8CB58C7F8CBD8DB58E7F30
:104610008DBD81E00E948708E091C101F091C20147
:1046200082E08083E091BD01F091BE011082E091B3
:10463000BF01F091C0018FEC80831092C901E0911D
:10464000C501F091C60186E08083E091C301F0913D
:10465000C401808180618083E091C301F091C40135
:10466000808188608083E091C301F091C4018081E2
:1046700080688083E091C301F091C40180818F7DC7
:1046800080830EE412E082E00E35180771F081EBB2
:1046900091E00E944C09892BD1F381EB91E00E94BB
:1046A0002A09F80181938F01EECF60E170E08EE678
:1046B00091E00E945D2160E170E08CE291E00E9457
:1046C0005D2180E00E9487088E010F5F1F4F6E0101
:1046D000F1E1CF0ED11C7801EC14FD04B9F081EBAF
:1046E00091E00E944C09892BD1F381EB91E00E946B
:1046F0002A09F70180836EE671E0C7010E94D52088
:10470000F70181917F010E945621E6CFE016F10664
:1047100061F06CE271E0C8010E94D520F80180814F
:104720000F5F1F4F0E945621F1CF81EB91E00E9455
:104730004C09892BD1F300E010E081EB91E00E945D
:104740004C09892B81F46AE070E080E090E00E94DF
:10475000200A0115110589F30E945809882369F37D
:104760000E940000EACF81EB91E00E942A09809329
:10477000B0010E9456216EE671E080EB91E00E944C
:10478000D5208091B0010E94562168EE73E080E050
:1047900090E0DDCFE1EBF1E01382128288EE93E04E
:1047A000A0E0B0E084839583A683B78384E091E0A2
:1047B0009183808385EC90E09587848784EC90E0FA
:1047C0009787868780EC90E0918B808B81EC90E0DE
:1047D000938B828B82EC90E0958B848B86EC90E0BF
:1047E000978B868B118E128E138E148E0895EE0F7A
:1047F000FF1F0590F491E02D09946817790768F47C
:10480000FB01DC01E40FF51FA40FB51F02C00290ED
:104810000E9241505040D8F708950C941624DC01B4
:1048200001C06D9341505040E0F70895FB01DC0159
:1048300002C001900D9241505040D8F70895F8946D
:10484000FFCF000000008E09EE081B09DB094C09B0
:104850002A093E097A6A6C62793A62643071666C40
:0448600068657537DB
:107E0000112484B714BE81FFF0D085E080938100F7
:107E100082E08093C00088E18093C10086E0809377
:107E2000C20080E18093C4008EE0C9D0259A86E02C
:107E300020E33CEF91E0309385002093840096BBD3
:107E4000B09BFECF1D9AA8958150A9F7CC24DD24C4
:107E500088248394B5E0AB2EA1E19A2EF3E0BF2EE7
:107E6000A2D0813461F49FD0082FAFD0023811F036
:107E7000013811F484E001C083E08DD089C08234E0
:107E800011F484E103C0853419F485E0A6D080C0E4
:107E9000853579F488D0E82EFF2485D0082F10E0AE
:107EA000102F00270E291F29000F111F8ED06801E7
:107EB0006FC0863521F484E090D080E0DECF843638
:107EC00009F040C070D06FD0082F6DD080E0C81688
:107ED00080E7D80618F4F601B7BEE895C0E0D1E017
:107EE00062D089930C17E1F7F0E0CF16F0E7DF06D8
:107EF00018F0F601B7BEE89568D007B600FCFDCFD4
:107F0000A601A0E0B1E02C9130E011968C91119780
:107F100090E0982F8827822B932B1296FA010C0160
:107F200087BEE89511244E5F5F4FF1E0A038BF0790
:107F300051F7F601A7BEE89507B600FCFDCF97BE46
:107F4000E89526C08437B1F42ED02DD0F82E2BD052
:107F50003CD0F601EF2C8F010F5F1F4F84911BD097
:107F6000EA94F801C1F70894C11CD11CFA94CF0C13
:107F7000D11C0EC0853739F428D08EE10CD085E9AC
:107F80000AD08FE07ACF813511F488E018D01DD067
:107F900080E101D065CF982F8091C00085FFFCCF94
:107FA0009093C60008958091C00087FFFCCF809118
:107FB000C00084FD01C0A8958091C6000895E0E648
:107FC000F0E098E1908380830895EDDF803219F02E
:107FD00088E0F5DFFFCF84E1DECF1F93182FE3DFCA
:107FE0001150E9F7F2DF1F91089580E0E8DFEE27F6
:047FF000FF270994CA
:027FFE00040479
:00000001FF
